{
	"contracts/Token_fayzi.sol": {
		"Token_Fayzi": {
			"abi": [
				{
					"inputs": [],
					"stateMutability": "nonpayable",
					"type": "constructor"
				},
				{
					"inputs": [
						{
							"internalType": "uint256",
							"name": "amount_requst",
							"type": "uint256"
						},
						{
							"internalType": "uint256",
							"name": "balance_available",
							"type": "uint256"
						}
					],
					"name": "Balance_Insufficient",
					"type": "error"
				},
				{
					"anonymous": false,
					"inputs": [
						{
							"indexed": false,
							"internalType": "address",
							"name": "from",
							"type": "address"
						},
						{
							"indexed": false,
							"internalType": "address",
							"name": "to",
							"type": "address"
						},
						{
							"indexed": false,
							"internalType": "uint256",
							"name": "amount",
							"type": "uint256"
						}
					],
					"name": "Send_Event",
					"type": "event"
				},
				{
					"inputs": [
						{
							"internalType": "address",
							"name": "receiver",
							"type": "address"
						},
						{
							"internalType": "uint256",
							"name": "amount",
							"type": "uint256"
						}
					],
					"name": "Owner",
					"outputs": [],
					"stateMutability": "nonpayable",
					"type": "function"
				},
				{
					"inputs": [
						{
							"internalType": "address",
							"name": "receiver",
							"type": "address"
						},
						{
							"internalType": "uint256",
							"name": "amount",
							"type": "uint256"
						}
					],
					"name": "Send",
					"outputs": [],
					"stateMutability": "nonpayable",
					"type": "function"
				},
				{
					"inputs": [
						{
							"internalType": "address",
							"name": "",
							"type": "address"
						}
					],
					"name": "balances",
					"outputs": [
						{
							"internalType": "uint256",
							"name": "",
							"type": "uint256"
						}
					],
					"stateMutability": "view",
					"type": "function"
				},
				{
					"inputs": [],
					"name": "owner",
					"outputs": [
						{
							"internalType": "address",
							"name": "",
							"type": "address"
						}
					],
					"stateMutability": "view",
					"type": "function"
				}
			],
			"devdoc": {
				"kind": "dev",
				"methods": {},
				"version": 1
			},
			"evm": {
				"assembly": "    /* \"contracts/Token_fayzi.sol\":60:1092  contract Token_Fayzi{... */\n  mstore(0x40, 0x80)\n    /* \"contracts/Token_fayzi.sol\":508:559  constructor() {... */\n  callvalue\n  dup1\n  iszero\n  tag_1\n  jumpi\n  0x00\n  dup1\n  revert\ntag_1:\n  pop\n    /* \"contracts/Token_fayzi.sol\":541:551  msg.sender */\n  caller\n    /* \"contracts/Token_fayzi.sol\":533:538  owner */\n  0x00\n  dup1\n    /* \"contracts/Token_fayzi.sol\":533:551  owner = msg.sender */\n  0x0100\n  exp\n  dup2\n  sload\n  dup2\n  0xffffffffffffffffffffffffffffffffffffffff\n  mul\n  not\n  and\n  swap1\n  dup4\n  0xffffffffffffffffffffffffffffffffffffffff\n  and\n  mul\n  or\n  swap1\n  sstore\n  pop\n    /* \"contracts/Token_fayzi.sol\":60:1092  contract Token_Fayzi{... */\n  dataSize(sub_0)\n  dup1\n  dataOffset(sub_0)\n  0x00\n  codecopy\n  0x00\n  return\nstop\n\nsub_0: assembly {\n        /* \"contracts/Token_fayzi.sol\":60:1092  contract Token_Fayzi{... */\n      mstore(0x40, 0x80)\n      callvalue\n      dup1\n      iszero\n      tag_1\n      jumpi\n      0x00\n      dup1\n      revert\n    tag_1:\n      pop\n      jumpi(tag_2, lt(calldatasize, 0x04))\n      shr(0xe0, calldataload(0x00))\n      dup1\n      0x27e235e3\n      eq\n      tag_3\n      jumpi\n      dup1\n      0x30a3c507\n      eq\n      tag_4\n      jumpi\n      dup1\n      0x71236b92\n      eq\n      tag_5\n      jumpi\n      dup1\n      0x8da5cb5b\n      eq\n      tag_6\n      jumpi\n    tag_2:\n      0x00\n      dup1\n      revert\n        /* \"contracts/Token_fayzi.sol\":134:173  mapping (address=>uint) public balances */\n    tag_3:\n      tag_7\n      0x04\n      dup1\n      calldatasize\n      sub\n      dup2\n      add\n      swap1\n      tag_8\n      swap2\n      swap1\n      tag_9\n      jump\t// in\n    tag_8:\n      tag_10\n      jump\t// in\n    tag_7:\n      mload(0x40)\n      tag_11\n      swap2\n      swap1\n      tag_12\n      jump\t// in\n    tag_11:\n      mload(0x40)\n      dup1\n      swap2\n      sub\n      swap1\n      return\n        /* \"contracts/Token_fayzi.sol\":709:1083  function Send(address receiver, uint amount)... */\n    tag_4:\n      tag_13\n      0x04\n      dup1\n      calldatasize\n      sub\n      dup2\n      add\n      swap1\n      tag_14\n      swap2\n      swap1\n      tag_15\n      jump\t// in\n    tag_14:\n      tag_16\n      jump\t// in\n    tag_13:\n      stop\n        /* \"contracts/Token_fayzi.sol\":580:700  function Owner(address receiver , uint amount)... */\n    tag_5:\n      tag_17\n      0x04\n      dup1\n      calldatasize\n      sub\n      dup2\n      add\n      swap1\n      tag_18\n      swap2\n      swap1\n      tag_15\n      jump\t// in\n    tag_18:\n      tag_19\n      jump\t// in\n    tag_17:\n      stop\n        /* \"contracts/Token_fayzi.sol\":107:127  address public owner */\n    tag_6:\n      tag_20\n      tag_21\n      jump\t// in\n    tag_20:\n      mload(0x40)\n      tag_22\n      swap2\n      swap1\n      tag_23\n      jump\t// in\n    tag_22:\n      mload(0x40)\n      dup1\n      swap2\n      sub\n      swap1\n      return\n        /* \"contracts/Token_fayzi.sol\":134:173  mapping (address=>uint) public balances */\n    tag_10:\n      mstore(0x20, 0x01)\n      dup1\n      0x00\n      mstore\n      keccak256(0x00, 0x40)\n      0x00\n      swap2\n      pop\n      swap1\n      pop\n      sload\n      dup2\n      jump\t// out\n        /* \"contracts/Token_fayzi.sol\":709:1083  function Send(address receiver, uint amount)... */\n    tag_16:\n        /* \"contracts/Token_fayzi.sol\":795:803  balances */\n      0x01\n        /* \"contracts/Token_fayzi.sol\":795:815  balances[msg.sender] */\n      0x00\n        /* \"contracts/Token_fayzi.sol\":804:814  msg.sender */\n      caller\n        /* \"contracts/Token_fayzi.sol\":795:815  balances[msg.sender] */\n      0xffffffffffffffffffffffffffffffffffffffff\n      and\n      0xffffffffffffffffffffffffffffffffffffffff\n      and\n      dup2\n      mstore\n      0x20\n      add\n      swap1\n      dup2\n      mstore\n      0x20\n      add\n      0x00\n      keccak256\n      sload\n        /* \"contracts/Token_fayzi.sol\":788:794  amount */\n      dup2\n        /* \"contracts/Token_fayzi.sol\":788:815  amount>balances[msg.sender] */\n      gt\n        /* \"contracts/Token_fayzi.sol\":785:936  if(amount>balances[msg.sender])... */\n      iszero\n      tag_25\n      jumpi\n        /* \"contracts/Token_fayzi.sol\":895:936  revert(\"Account balance is insufficient\") */\n      mload(0x40)\n      0x08c379a000000000000000000000000000000000000000000000000000000000\n      dup2\n      mstore\n      0x04\n      add\n      tag_26\n      swap1\n      tag_27\n      jump\t// in\n    tag_26:\n      mload(0x40)\n      dup1\n      swap2\n      sub\n      swap1\n      revert\n        /* \"contracts/Token_fayzi.sol\":785:936  if(amount>balances[msg.sender])... */\n    tag_25:\n        /* \"contracts/Token_fayzi.sol\":973:979  amount */\n      dup1\n        /* \"contracts/Token_fayzi.sol\":949:957  balances */\n      0x01\n        /* \"contracts/Token_fayzi.sol\":949:969  balances[msg.sender] */\n      0x00\n        /* \"contracts/Token_fayzi.sol\":958:968  msg.sender */\n      caller\n        /* \"contracts/Token_fayzi.sol\":949:969  balances[msg.sender] */\n      0xffffffffffffffffffffffffffffffffffffffff\n      and\n      0xffffffffffffffffffffffffffffffffffffffff\n      and\n      dup2\n      mstore\n      0x20\n      add\n      swap1\n      dup2\n      mstore\n      0x20\n      add\n      0x00\n      keccak256\n      0x00\n        /* \"contracts/Token_fayzi.sol\":949:979  balances[msg.sender] -= amount */\n      dup3\n      dup3\n      sload\n      tag_28\n      swap2\n      swap1\n      tag_29\n      jump\t// in\n    tag_28:\n      swap3\n      pop\n      pop\n      dup2\n      swap1\n      sstore\n      pop\n        /* \"contracts/Token_fayzi.sol\":1012:1018  amount */\n      dup1\n        /* \"contracts/Token_fayzi.sol\":990:998  balances */\n      0x01\n        /* \"contracts/Token_fayzi.sol\":990:1008  balances[receiver] */\n      0x00\n        /* \"contracts/Token_fayzi.sol\":999:1007  receiver */\n      dup5\n        /* \"contracts/Token_fayzi.sol\":990:1008  balances[receiver] */\n      0xffffffffffffffffffffffffffffffffffffffff\n      and\n      0xffffffffffffffffffffffffffffffffffffffff\n      and\n      dup2\n      mstore\n      0x20\n      add\n      swap1\n      dup2\n      mstore\n      0x20\n      add\n      0x00\n      keccak256\n      0x00\n        /* \"contracts/Token_fayzi.sol\":990:1018  balances[receiver] += amount */\n      dup3\n      dup3\n      sload\n      tag_30\n      swap2\n      swap1\n      tag_31\n      jump\t// in\n    tag_30:\n      swap3\n      pop\n      pop\n      dup2\n      swap1\n      sstore\n      pop\n        /* \"contracts/Token_fayzi.sol\":1034:1074  Send_Event(msg.sender, receiver, amount) */\n      0xd262824afdb34f47adec0d11d444478d210933cbc39a64c42bda1c7db2462f9d\n        /* \"contracts/Token_fayzi.sol\":1045:1055  msg.sender */\n      caller\n        /* \"contracts/Token_fayzi.sol\":1057:1065  receiver */\n      dup4\n        /* \"contracts/Token_fayzi.sol\":1067:1073  amount */\n      dup4\n        /* \"contracts/Token_fayzi.sol\":1034:1074  Send_Event(msg.sender, receiver, amount) */\n      mload(0x40)\n      tag_32\n      swap4\n      swap3\n      swap2\n      swap1\n      tag_33\n      jump\t// in\n    tag_32:\n      mload(0x40)\n      dup1\n      swap2\n      sub\n      swap1\n      log1\n        /* \"contracts/Token_fayzi.sol\":709:1083  function Send(address receiver, uint amount)... */\n      pop\n      pop\n      jump\t// out\n        /* \"contracts/Token_fayzi.sol\":580:700  function Owner(address receiver , uint amount)... */\n    tag_19:\n        /* \"contracts/Token_fayzi.sol\":344:349  owner */\n      0x00\n      dup1\n      sload\n      swap1\n      0x0100\n      exp\n      swap1\n      div\n      0xffffffffffffffffffffffffffffffffffffffff\n      and\n        /* \"contracts/Token_fayzi.sol\":331:349  msg.sender== owner */\n      0xffffffffffffffffffffffffffffffffffffffff\n      and\n        /* \"contracts/Token_fayzi.sol\":331:341  msg.sender */\n      caller\n        /* \"contracts/Token_fayzi.sol\":331:349  msg.sender== owner */\n      0xffffffffffffffffffffffffffffffffffffffff\n      and\n      eq\n        /* \"contracts/Token_fayzi.sol\":323:393  require(msg.sender== owner, \"Only the owner can access this function\") */\n      tag_35\n      jumpi\n      mload(0x40)\n      0x08c379a000000000000000000000000000000000000000000000000000000000\n      dup2\n      mstore\n      0x04\n      add\n      tag_36\n      swap1\n      tag_37\n      jump\t// in\n    tag_36:\n      mload(0x40)\n      dup1\n      swap2\n      sub\n      swap1\n      revert\n    tag_35:\n        /* \"contracts/Token_fayzi.sol\":686:692  amount */\n      dup1\n        /* \"contracts/Token_fayzi.sol\":664:672  balances */\n      0x01\n        /* \"contracts/Token_fayzi.sol\":664:682  balances[receiver] */\n      0x00\n        /* \"contracts/Token_fayzi.sol\":673:681  receiver */\n      dup5\n        /* \"contracts/Token_fayzi.sol\":664:682  balances[receiver] */\n      0xffffffffffffffffffffffffffffffffffffffff\n      and\n      0xffffffffffffffffffffffffffffffffffffffff\n      and\n      dup2\n      mstore\n      0x20\n      add\n      swap1\n      dup2\n      mstore\n      0x20\n      add\n      0x00\n      keccak256\n      0x00\n        /* \"contracts/Token_fayzi.sol\":664:692  balances[receiver] += amount */\n      dup3\n      dup3\n      sload\n      tag_39\n      swap2\n      swap1\n      tag_31\n      jump\t// in\n    tag_39:\n      swap3\n      pop\n      pop\n      dup2\n      swap1\n      sstore\n      pop\n        /* \"contracts/Token_fayzi.sol\":580:700  function Owner(address receiver , uint amount)... */\n      pop\n      pop\n      jump\t// out\n        /* \"contracts/Token_fayzi.sol\":107:127  address public owner */\n    tag_21:\n      0x00\n      dup1\n      sload\n      swap1\n      0x0100\n      exp\n      swap1\n      div\n      0xffffffffffffffffffffffffffffffffffffffff\n      and\n      dup2\n      jump\t// out\n        /* \"#utility.yul\":88:205   */\n    tag_41:\n        /* \"#utility.yul\":197:198   */\n      0x00\n        /* \"#utility.yul\":194:195   */\n      dup1\n        /* \"#utility.yul\":187:199   */\n      revert\n        /* \"#utility.yul\":334:460   */\n    tag_43:\n        /* \"#utility.yul\":371:378   */\n      0x00\n        /* \"#utility.yul\":411:453   */\n      0xffffffffffffffffffffffffffffffffffffffff\n        /* \"#utility.yul\":404:409   */\n      dup3\n        /* \"#utility.yul\":400:454   */\n      and\n        /* \"#utility.yul\":389:454   */\n      swap1\n      pop\n        /* \"#utility.yul\":334:460   */\n      swap2\n      swap1\n      pop\n      jump\t// out\n        /* \"#utility.yul\":466:562   */\n    tag_44:\n        /* \"#utility.yul\":503:510   */\n      0x00\n        /* \"#utility.yul\":532:556   */\n      tag_64\n        /* \"#utility.yul\":550:555   */\n      dup3\n        /* \"#utility.yul\":532:556   */\n      tag_43\n      jump\t// in\n    tag_64:\n        /* \"#utility.yul\":521:556   */\n      swap1\n      pop\n        /* \"#utility.yul\":466:562   */\n      swap2\n      swap1\n      pop\n      jump\t// out\n        /* \"#utility.yul\":568:690   */\n    tag_45:\n        /* \"#utility.yul\":641:665   */\n      tag_66\n        /* \"#utility.yul\":659:664   */\n      dup2\n        /* \"#utility.yul\":641:665   */\n      tag_44\n      jump\t// in\n    tag_66:\n        /* \"#utility.yul\":634:639   */\n      dup2\n        /* \"#utility.yul\":631:666   */\n      eq\n        /* \"#utility.yul\":621:684   */\n      tag_67\n      jumpi\n        /* \"#utility.yul\":680:681   */\n      0x00\n        /* \"#utility.yul\":677:678   */\n      dup1\n        /* \"#utility.yul\":670:682   */\n      revert\n        /* \"#utility.yul\":621:684   */\n    tag_67:\n        /* \"#utility.yul\":568:690   */\n      pop\n      jump\t// out\n        /* \"#utility.yul\":696:835   */\n    tag_46:\n        /* \"#utility.yul\":742:747   */\n      0x00\n        /* \"#utility.yul\":780:786   */\n      dup2\n        /* \"#utility.yul\":767:787   */\n      calldataload\n        /* \"#utility.yul\":758:787   */\n      swap1\n      pop\n        /* \"#utility.yul\":796:829   */\n      tag_69\n        /* \"#utility.yul\":823:828   */\n      dup2\n        /* \"#utility.yul\":796:829   */\n      tag_45\n      jump\t// in\n    tag_69:\n        /* \"#utility.yul\":696:835   */\n      swap3\n      swap2\n      pop\n      pop\n      jump\t// out\n        /* \"#utility.yul\":841:1170   */\n    tag_9:\n        /* \"#utility.yul\":900:906   */\n      0x00\n        /* \"#utility.yul\":949:951   */\n      0x20\n        /* \"#utility.yul\":937:946   */\n      dup3\n        /* \"#utility.yul\":928:935   */\n      dup5\n        /* \"#utility.yul\":924:947   */\n      sub\n        /* \"#utility.yul\":920:952   */\n      slt\n        /* \"#utility.yul\":917:1036   */\n      iszero\n      tag_71\n      jumpi\n        /* \"#utility.yul\":955:1034   */\n      tag_72\n      tag_41\n      jump\t// in\n    tag_72:\n        /* \"#utility.yul\":917:1036   */\n    tag_71:\n        /* \"#utility.yul\":1075:1076   */\n      0x00\n        /* \"#utility.yul\":1100:1153   */\n      tag_73\n        /* \"#utility.yul\":1145:1152   */\n      dup5\n        /* \"#utility.yul\":1136:1142   */\n      dup3\n        /* \"#utility.yul\":1125:1134   */\n      dup6\n        /* \"#utility.yul\":1121:1143   */\n      add\n        /* \"#utility.yul\":1100:1153   */\n      tag_46\n      jump\t// in\n    tag_73:\n        /* \"#utility.yul\":1090:1153   */\n      swap2\n      pop\n        /* \"#utility.yul\":1046:1163   */\n      pop\n        /* \"#utility.yul\":841:1170   */\n      swap3\n      swap2\n      pop\n      pop\n      jump\t// out\n        /* \"#utility.yul\":1176:1253   */\n    tag_47:\n        /* \"#utility.yul\":1213:1220   */\n      0x00\n        /* \"#utility.yul\":1242:1247   */\n      dup2\n        /* \"#utility.yul\":1231:1247   */\n      swap1\n      pop\n        /* \"#utility.yul\":1176:1253   */\n      swap2\n      swap1\n      pop\n      jump\t// out\n        /* \"#utility.yul\":1259:1377   */\n    tag_48:\n        /* \"#utility.yul\":1346:1370   */\n      tag_76\n        /* \"#utility.yul\":1364:1369   */\n      dup2\n        /* \"#utility.yul\":1346:1370   */\n      tag_47\n      jump\t// in\n    tag_76:\n        /* \"#utility.yul\":1341:1344   */\n      dup3\n        /* \"#utility.yul\":1334:1371   */\n      mstore\n        /* \"#utility.yul\":1259:1377   */\n      pop\n      pop\n      jump\t// out\n        /* \"#utility.yul\":1383:1605   */\n    tag_12:\n        /* \"#utility.yul\":1476:1480   */\n      0x00\n        /* \"#utility.yul\":1514:1516   */\n      0x20\n        /* \"#utility.yul\":1503:1512   */\n      dup3\n        /* \"#utility.yul\":1499:1517   */\n      add\n        /* \"#utility.yul\":1491:1517   */\n      swap1\n      pop\n        /* \"#utility.yul\":1527:1598   */\n      tag_78\n        /* \"#utility.yul\":1595:1596   */\n      0x00\n        /* \"#utility.yul\":1584:1593   */\n      dup4\n        /* \"#utility.yul\":1580:1597   */\n      add\n        /* \"#utility.yul\":1571:1577   */\n      dup5\n        /* \"#utility.yul\":1527:1598   */\n      tag_48\n      jump\t// in\n    tag_78:\n        /* \"#utility.yul\":1383:1605   */\n      swap3\n      swap2\n      pop\n      pop\n      jump\t// out\n        /* \"#utility.yul\":1611:1733   */\n    tag_49:\n        /* \"#utility.yul\":1684:1708   */\n      tag_80\n        /* \"#utility.yul\":1702:1707   */\n      dup2\n        /* \"#utility.yul\":1684:1708   */\n      tag_47\n      jump\t// in\n    tag_80:\n        /* \"#utility.yul\":1677:1682   */\n      dup2\n        /* \"#utility.yul\":1674:1709   */\n      eq\n        /* \"#utility.yul\":1664:1727   */\n      tag_81\n      jumpi\n        /* \"#utility.yul\":1723:1724   */\n      0x00\n        /* \"#utility.yul\":1720:1721   */\n      dup1\n        /* \"#utility.yul\":1713:1725   */\n      revert\n        /* \"#utility.yul\":1664:1727   */\n    tag_81:\n        /* \"#utility.yul\":1611:1733   */\n      pop\n      jump\t// out\n        /* \"#utility.yul\":1739:1878   */\n    tag_50:\n        /* \"#utility.yul\":1785:1790   */\n      0x00\n        /* \"#utility.yul\":1823:1829   */\n      dup2\n        /* \"#utility.yul\":1810:1830   */\n      calldataload\n        /* \"#utility.yul\":1801:1830   */\n      swap1\n      pop\n        /* \"#utility.yul\":1839:1872   */\n      tag_83\n        /* \"#utility.yul\":1866:1871   */\n      dup2\n        /* \"#utility.yul\":1839:1872   */\n      tag_49\n      jump\t// in\n    tag_83:\n        /* \"#utility.yul\":1739:1878   */\n      swap3\n      swap2\n      pop\n      pop\n      jump\t// out\n        /* \"#utility.yul\":1884:2358   */\n    tag_15:\n        /* \"#utility.yul\":1952:1958   */\n      0x00\n        /* \"#utility.yul\":1960:1966   */\n      dup1\n        /* \"#utility.yul\":2009:2011   */\n      0x40\n        /* \"#utility.yul\":1997:2006   */\n      dup4\n        /* \"#utility.yul\":1988:1995   */\n      dup6\n        /* \"#utility.yul\":1984:2007   */\n      sub\n        /* \"#utility.yul\":1980:2012   */\n      slt\n        /* \"#utility.yul\":1977:2096   */\n      iszero\n      tag_85\n      jumpi\n        /* \"#utility.yul\":2015:2094   */\n      tag_86\n      tag_41\n      jump\t// in\n    tag_86:\n        /* \"#utility.yul\":1977:2096   */\n    tag_85:\n        /* \"#utility.yul\":2135:2136   */\n      0x00\n        /* \"#utility.yul\":2160:2213   */\n      tag_87\n        /* \"#utility.yul\":2205:2212   */\n      dup6\n        /* \"#utility.yul\":2196:2202   */\n      dup3\n        /* \"#utility.yul\":2185:2194   */\n      dup7\n        /* \"#utility.yul\":2181:2203   */\n      add\n        /* \"#utility.yul\":2160:2213   */\n      tag_46\n      jump\t// in\n    tag_87:\n        /* \"#utility.yul\":2150:2213   */\n      swap3\n      pop\n        /* \"#utility.yul\":2106:2223   */\n      pop\n        /* \"#utility.yul\":2262:2264   */\n      0x20\n        /* \"#utility.yul\":2288:2341   */\n      tag_88\n        /* \"#utility.yul\":2333:2340   */\n      dup6\n        /* \"#utility.yul\":2324:2330   */\n      dup3\n        /* \"#utility.yul\":2313:2322   */\n      dup7\n        /* \"#utility.yul\":2309:2331   */\n      add\n        /* \"#utility.yul\":2288:2341   */\n      tag_50\n      jump\t// in\n    tag_88:\n        /* \"#utility.yul\":2278:2341   */\n      swap2\n      pop\n        /* \"#utility.yul\":2233:2351   */\n      pop\n        /* \"#utility.yul\":1884:2358   */\n      swap3\n      pop\n      swap3\n      swap1\n      pop\n      jump\t// out\n        /* \"#utility.yul\":2364:2482   */\n    tag_51:\n        /* \"#utility.yul\":2451:2475   */\n      tag_90\n        /* \"#utility.yul\":2469:2474   */\n      dup2\n        /* \"#utility.yul\":2451:2475   */\n      tag_44\n      jump\t// in\n    tag_90:\n        /* \"#utility.yul\":2446:2449   */\n      dup3\n        /* \"#utility.yul\":2439:2476   */\n      mstore\n        /* \"#utility.yul\":2364:2482   */\n      pop\n      pop\n      jump\t// out\n        /* \"#utility.yul\":2488:2710   */\n    tag_23:\n        /* \"#utility.yul\":2581:2585   */\n      0x00\n        /* \"#utility.yul\":2619:2621   */\n      0x20\n        /* \"#utility.yul\":2608:2617   */\n      dup3\n        /* \"#utility.yul\":2604:2622   */\n      add\n        /* \"#utility.yul\":2596:2622   */\n      swap1\n      pop\n        /* \"#utility.yul\":2632:2703   */\n      tag_92\n        /* \"#utility.yul\":2700:2701   */\n      0x00\n        /* \"#utility.yul\":2689:2698   */\n      dup4\n        /* \"#utility.yul\":2685:2702   */\n      add\n        /* \"#utility.yul\":2676:2682   */\n      dup5\n        /* \"#utility.yul\":2632:2703   */\n      tag_51\n      jump\t// in\n    tag_92:\n        /* \"#utility.yul\":2488:2710   */\n      swap3\n      swap2\n      pop\n      pop\n      jump\t// out\n        /* \"#utility.yul\":2716:2885   */\n    tag_52:\n        /* \"#utility.yul\":2800:2811   */\n      0x00\n        /* \"#utility.yul\":2834:2840   */\n      dup3\n        /* \"#utility.yul\":2829:2832   */\n      dup3\n        /* \"#utility.yul\":2822:2841   */\n      mstore\n        /* \"#utility.yul\":2874:2878   */\n      0x20\n        /* \"#utility.yul\":2869:2872   */\n      dup3\n        /* \"#utility.yul\":2865:2879   */\n      add\n        /* \"#utility.yul\":2850:2879   */\n      swap1\n      pop\n        /* \"#utility.yul\":2716:2885   */\n      swap3\n      swap2\n      pop\n      pop\n      jump\t// out\n        /* \"#utility.yul\":2891:3072   */\n    tag_53:\n        /* \"#utility.yul\":3031:3064   */\n      0x4163636f756e742062616c616e636520697320696e73756666696369656e7400\n        /* \"#utility.yul\":3027:3028   */\n      0x00\n        /* \"#utility.yul\":3019:3025   */\n      dup3\n        /* \"#utility.yul\":3015:3029   */\n      add\n        /* \"#utility.yul\":3008:3065   */\n      mstore\n        /* \"#utility.yul\":2891:3072   */\n      pop\n      jump\t// out\n        /* \"#utility.yul\":3078:3444   */\n    tag_54:\n        /* \"#utility.yul\":3220:3223   */\n      0x00\n        /* \"#utility.yul\":3241:3308   */\n      tag_96\n        /* \"#utility.yul\":3305:3307   */\n      0x1f\n        /* \"#utility.yul\":3300:3303   */\n      dup4\n        /* \"#utility.yul\":3241:3308   */\n      tag_52\n      jump\t// in\n    tag_96:\n        /* \"#utility.yul\":3234:3308   */\n      swap2\n      pop\n        /* \"#utility.yul\":3317:3410   */\n      tag_97\n        /* \"#utility.yul\":3406:3409   */\n      dup3\n        /* \"#utility.yul\":3317:3410   */\n      tag_53\n      jump\t// in\n    tag_97:\n        /* \"#utility.yul\":3435:3437   */\n      0x20\n        /* \"#utility.yul\":3430:3433   */\n      dup3\n        /* \"#utility.yul\":3426:3438   */\n      add\n        /* \"#utility.yul\":3419:3438   */\n      swap1\n      pop\n        /* \"#utility.yul\":3078:3444   */\n      swap2\n      swap1\n      pop\n      jump\t// out\n        /* \"#utility.yul\":3450:3869   */\n    tag_27:\n        /* \"#utility.yul\":3616:3620   */\n      0x00\n        /* \"#utility.yul\":3654:3656   */\n      0x20\n        /* \"#utility.yul\":3643:3652   */\n      dup3\n        /* \"#utility.yul\":3639:3657   */\n      add\n        /* \"#utility.yul\":3631:3657   */\n      swap1\n      pop\n        /* \"#utility.yul\":3703:3712   */\n      dup2\n        /* \"#utility.yul\":3697:3701   */\n      dup2\n        /* \"#utility.yul\":3693:3713   */\n      sub\n        /* \"#utility.yul\":3689:3690   */\n      0x00\n        /* \"#utility.yul\":3678:3687   */\n      dup4\n        /* \"#utility.yul\":3674:3691   */\n      add\n        /* \"#utility.yul\":3667:3714   */\n      mstore\n        /* \"#utility.yul\":3731:3862   */\n      tag_99\n        /* \"#utility.yul\":3857:3861   */\n      dup2\n        /* \"#utility.yul\":3731:3862   */\n      tag_54\n      jump\t// in\n    tag_99:\n        /* \"#utility.yul\":3723:3862   */\n      swap1\n      pop\n        /* \"#utility.yul\":3450:3869   */\n      swap2\n      swap1\n      pop\n      jump\t// out\n        /* \"#utility.yul\":3875:4055   */\n    tag_55:\n        /* \"#utility.yul\":3923:4000   */\n      0x4e487b7100000000000000000000000000000000000000000000000000000000\n        /* \"#utility.yul\":3920:3921   */\n      0x00\n        /* \"#utility.yul\":3913:4001   */\n      mstore\n        /* \"#utility.yul\":4020:4024   */\n      0x11\n        /* \"#utility.yul\":4017:4018   */\n      0x04\n        /* \"#utility.yul\":4010:4025   */\n      mstore\n        /* \"#utility.yul\":4044:4048   */\n      0x24\n        /* \"#utility.yul\":4041:4042   */\n      0x00\n        /* \"#utility.yul\":4034:4049   */\n      revert\n        /* \"#utility.yul\":4061:4255   */\n    tag_29:\n        /* \"#utility.yul\":4101:4105   */\n      0x00\n        /* \"#utility.yul\":4121:4141   */\n      tag_102\n        /* \"#utility.yul\":4139:4140   */\n      dup3\n        /* \"#utility.yul\":4121:4141   */\n      tag_47\n      jump\t// in\n    tag_102:\n        /* \"#utility.yul\":4116:4141   */\n      swap2\n      pop\n        /* \"#utility.yul\":4155:4175   */\n      tag_103\n        /* \"#utility.yul\":4173:4174   */\n      dup4\n        /* \"#utility.yul\":4155:4175   */\n      tag_47\n      jump\t// in\n    tag_103:\n        /* \"#utility.yul\":4150:4175   */\n      swap3\n      pop\n        /* \"#utility.yul\":4199:4200   */\n      dup3\n        /* \"#utility.yul\":4196:4197   */\n      dup3\n        /* \"#utility.yul\":4192:4201   */\n      sub\n        /* \"#utility.yul\":4184:4201   */\n      swap1\n      pop\n        /* \"#utility.yul\":4223:4224   */\n      dup2\n        /* \"#utility.yul\":4217:4221   */\n      dup2\n        /* \"#utility.yul\":4214:4225   */\n      gt\n        /* \"#utility.yul\":4211:4248   */\n      iszero\n      tag_104\n      jumpi\n        /* \"#utility.yul\":4228:4246   */\n      tag_105\n      tag_55\n      jump\t// in\n    tag_105:\n        /* \"#utility.yul\":4211:4248   */\n    tag_104:\n        /* \"#utility.yul\":4061:4255   */\n      swap3\n      swap2\n      pop\n      pop\n      jump\t// out\n        /* \"#utility.yul\":4261:4452   */\n    tag_31:\n        /* \"#utility.yul\":4301:4304   */\n      0x00\n        /* \"#utility.yul\":4320:4340   */\n      tag_107\n        /* \"#utility.yul\":4338:4339   */\n      dup3\n        /* \"#utility.yul\":4320:4340   */\n      tag_47\n      jump\t// in\n    tag_107:\n        /* \"#utility.yul\":4315:4340   */\n      swap2\n      pop\n        /* \"#utility.yul\":4354:4374   */\n      tag_108\n        /* \"#utility.yul\":4372:4373   */\n      dup4\n        /* \"#utility.yul\":4354:4374   */\n      tag_47\n      jump\t// in\n    tag_108:\n        /* \"#utility.yul\":4349:4374   */\n      swap3\n      pop\n        /* \"#utility.yul\":4397:4398   */\n      dup3\n        /* \"#utility.yul\":4394:4395   */\n      dup3\n        /* \"#utility.yul\":4390:4399   */\n      add\n        /* \"#utility.yul\":4383:4399   */\n      swap1\n      pop\n        /* \"#utility.yul\":4418:4421   */\n      dup1\n        /* \"#utility.yul\":4415:4416   */\n      dup3\n        /* \"#utility.yul\":4412:4422   */\n      gt\n        /* \"#utility.yul\":4409:4445   */\n      iszero\n      tag_109\n      jumpi\n        /* \"#utility.yul\":4425:4443   */\n      tag_110\n      tag_55\n      jump\t// in\n    tag_110:\n        /* \"#utility.yul\":4409:4445   */\n    tag_109:\n        /* \"#utility.yul\":4261:4452   */\n      swap3\n      swap2\n      pop\n      pop\n      jump\t// out\n        /* \"#utility.yul\":4458:4900   */\n    tag_33:\n        /* \"#utility.yul\":4607:4611   */\n      0x00\n        /* \"#utility.yul\":4645:4647   */\n      0x60\n        /* \"#utility.yul\":4634:4643   */\n      dup3\n        /* \"#utility.yul\":4630:4648   */\n      add\n        /* \"#utility.yul\":4622:4648   */\n      swap1\n      pop\n        /* \"#utility.yul\":4658:4729   */\n      tag_112\n        /* \"#utility.yul\":4726:4727   */\n      0x00\n        /* \"#utility.yul\":4715:4724   */\n      dup4\n        /* \"#utility.yul\":4711:4728   */\n      add\n        /* \"#utility.yul\":4702:4708   */\n      dup7\n        /* \"#utility.yul\":4658:4729   */\n      tag_51\n      jump\t// in\n    tag_112:\n        /* \"#utility.yul\":4739:4811   */\n      tag_113\n        /* \"#utility.yul\":4807:4809   */\n      0x20\n        /* \"#utility.yul\":4796:4805   */\n      dup4\n        /* \"#utility.yul\":4792:4810   */\n      add\n        /* \"#utility.yul\":4783:4789   */\n      dup6\n        /* \"#utility.yul\":4739:4811   */\n      tag_51\n      jump\t// in\n    tag_113:\n        /* \"#utility.yul\":4821:4893   */\n      tag_114\n        /* \"#utility.yul\":4889:4891   */\n      0x40\n        /* \"#utility.yul\":4878:4887   */\n      dup4\n        /* \"#utility.yul\":4874:4892   */\n      add\n        /* \"#utility.yul\":4865:4871   */\n      dup5\n        /* \"#utility.yul\":4821:4893   */\n      tag_48\n      jump\t// in\n    tag_114:\n        /* \"#utility.yul\":4458:4900   */\n      swap5\n      swap4\n      pop\n      pop\n      pop\n      pop\n      jump\t// out\n        /* \"#utility.yul\":4906:5132   */\n    tag_56:\n        /* \"#utility.yul\":5046:5080   */\n      0x4f6e6c7920746865206f776e65722063616e2061636365737320746869732066\n        /* \"#utility.yul\":5042:5043   */\n      0x00\n        /* \"#utility.yul\":5034:5040   */\n      dup3\n        /* \"#utility.yul\":5030:5044   */\n      add\n        /* \"#utility.yul\":5023:5081   */\n      mstore\n        /* \"#utility.yul\":5115:5124   */\n      0x756e6374696f6e00000000000000000000000000000000000000000000000000\n        /* \"#utility.yul\":5110:5112   */\n      0x20\n        /* \"#utility.yul\":5102:5108   */\n      dup3\n        /* \"#utility.yul\":5098:5113   */\n      add\n        /* \"#utility.yul\":5091:5125   */\n      mstore\n        /* \"#utility.yul\":4906:5132   */\n      pop\n      jump\t// out\n        /* \"#utility.yul\":5138:5504   */\n    tag_57:\n        /* \"#utility.yul\":5280:5283   */\n      0x00\n        /* \"#utility.yul\":5301:5368   */\n      tag_117\n        /* \"#utility.yul\":5365:5367   */\n      0x27\n        /* \"#utility.yul\":5360:5363   */\n      dup4\n        /* \"#utility.yul\":5301:5368   */\n      tag_52\n      jump\t// in\n    tag_117:\n        /* \"#utility.yul\":5294:5368   */\n      swap2\n      pop\n        /* \"#utility.yul\":5377:5470   */\n      tag_118\n        /* \"#utility.yul\":5466:5469   */\n      dup3\n        /* \"#utility.yul\":5377:5470   */\n      tag_56\n      jump\t// in\n    tag_118:\n        /* \"#utility.yul\":5495:5497   */\n      0x40\n        /* \"#utility.yul\":5490:5493   */\n      dup3\n        /* \"#utility.yul\":5486:5498   */\n      add\n        /* \"#utility.yul\":5479:5498   */\n      swap1\n      pop\n        /* \"#utility.yul\":5138:5504   */\n      swap2\n      swap1\n      pop\n      jump\t// out\n        /* \"#utility.yul\":5510:5929   */\n    tag_37:\n        /* \"#utility.yul\":5676:5680   */\n      0x00\n        /* \"#utility.yul\":5714:5716   */\n      0x20\n        /* \"#utility.yul\":5703:5712   */\n      dup3\n        /* \"#utility.yul\":5699:5717   */\n      add\n        /* \"#utility.yul\":5691:5717   */\n      swap1\n      pop\n        /* \"#utility.yul\":5763:5772   */\n      dup2\n        /* \"#utility.yul\":5757:5761   */\n      dup2\n        /* \"#utility.yul\":5753:5773   */\n      sub\n        /* \"#utility.yul\":5749:5750   */\n      0x00\n        /* \"#utility.yul\":5738:5747   */\n      dup4\n        /* \"#utility.yul\":5734:5751   */\n      add\n        /* \"#utility.yul\":5727:5774   */\n      mstore\n        /* \"#utility.yul\":5791:5922   */\n      tag_120\n        /* \"#utility.yul\":5917:5921   */\n      dup2\n        /* \"#utility.yul\":5791:5922   */\n      tag_57\n      jump\t// in\n    tag_120:\n        /* \"#utility.yul\":5783:5922   */\n      swap1\n      pop\n        /* \"#utility.yul\":5510:5929   */\n      swap2\n      swap1\n      pop\n      jump\t// out\n\n    auxdata: 0xa2646970667358221220175e83a84826705ba3fe76e0d057428dbd9e712bdc754c6ca46949dacf41006664736f6c63430008190033\n}\n",
				"bytecode": {
					"linkReferences": {},
					"object": "6080604052348015600e575f80fd5b50335f806101000a81548173ffffffffffffffffffffffffffffffffffffffff021916908373ffffffffffffffffffffffffffffffffffffffff1602179055506106a38061005b5f395ff3fe608060405234801561000f575f80fd5b506004361061004a575f3560e01c806327e235e31461004e57806330a3c5071461007e57806371236b921461009a5780638da5cb5b146100b6575b5f80fd5b610068600480360381019061006391906103b3565b6100d4565b60405161007591906103f6565b60405180910390f35b61009860048036038101906100939190610439565b6100e9565b005b6100b460048036038101906100af9190610439565b61024e565b005b6100be610332565b6040516100cb9190610486565b60405180910390f35b6001602052805f5260405f205f915090505481565b60015f3373ffffffffffffffffffffffffffffffffffffffff1673ffffffffffffffffffffffffffffffffffffffff1681526020019081526020015f2054811115610169576040517f08c379a0000000000000000000000000000000000000000000000000000000008152600401610160906104f9565b60405180910390fd5b8060015f3373ffffffffffffffffffffffffffffffffffffffff1673ffffffffffffffffffffffffffffffffffffffff1681526020019081526020015f205f8282546101b59190610544565b925050819055508060015f8473ffffffffffffffffffffffffffffffffffffffff1673ffffffffffffffffffffffffffffffffffffffff1681526020019081526020015f205f8282546102089190610577565b925050819055507fd262824afdb34f47adec0d11d444478d210933cbc39a64c42bda1c7db2462f9d338383604051610242939291906105aa565b60405180910390a15050565b5f8054906101000a900473ffffffffffffffffffffffffffffffffffffffff1673ffffffffffffffffffffffffffffffffffffffff163373ffffffffffffffffffffffffffffffffffffffff16146102db576040517f08c379a00000000000000000000000000000000000000000000000000000000081526004016102d29061064f565b60405180910390fd5b8060015f8473ffffffffffffffffffffffffffffffffffffffff1673ffffffffffffffffffffffffffffffffffffffff1681526020019081526020015f205f8282546103279190610577565b925050819055505050565b5f8054906101000a900473ffffffffffffffffffffffffffffffffffffffff1681565b5f80fd5b5f73ffffffffffffffffffffffffffffffffffffffff82169050919050565b5f61038282610359565b9050919050565b61039281610378565b811461039c575f80fd5b50565b5f813590506103ad81610389565b92915050565b5f602082840312156103c8576103c7610355565b5b5f6103d58482850161039f565b91505092915050565b5f819050919050565b6103f0816103de565b82525050565b5f6020820190506104095f8301846103e7565b92915050565b610418816103de565b8114610422575f80fd5b50565b5f813590506104338161040f565b92915050565b5f806040838503121561044f5761044e610355565b5b5f61045c8582860161039f565b925050602061046d85828601610425565b9150509250929050565b61048081610378565b82525050565b5f6020820190506104995f830184610477565b92915050565b5f82825260208201905092915050565b7f4163636f756e742062616c616e636520697320696e73756666696369656e74005f82015250565b5f6104e3601f8361049f565b91506104ee826104af565b602082019050919050565b5f6020820190508181035f830152610510816104d7565b9050919050565b7f4e487b71000000000000000000000000000000000000000000000000000000005f52601160045260245ffd5b5f61054e826103de565b9150610559836103de565b925082820390508181111561057157610570610517565b5b92915050565b5f610581826103de565b915061058c836103de565b92508282019050808211156105a4576105a3610517565b5b92915050565b5f6060820190506105bd5f830186610477565b6105ca6020830185610477565b6105d760408301846103e7565b949350505050565b7f4f6e6c7920746865206f776e65722063616e20616363657373207468697320665f8201527f756e6374696f6e00000000000000000000000000000000000000000000000000602082015250565b5f61063960278361049f565b9150610644826105df565b604082019050919050565b5f6020820190508181035f8301526106668161062d565b905091905056fea2646970667358221220175e83a84826705ba3fe76e0d057428dbd9e712bdc754c6ca46949dacf41006664736f6c63430008190033",
					"opcodes": "PUSH1 0x80 PUSH1 0x40 MSTORE CALLVALUE DUP1 ISZERO PUSH1 0xE JUMPI PUSH0 DUP1 REVERT JUMPDEST POP CALLER PUSH0 DUP1 PUSH2 0x100 EXP DUP2 SLOAD DUP2 PUSH20 0xFFFFFFFFFFFFFFFFFFFFFFFFFFFFFFFFFFFFFFFF MUL NOT AND SWAP1 DUP4 PUSH20 0xFFFFFFFFFFFFFFFFFFFFFFFFFFFFFFFFFFFFFFFF AND MUL OR SWAP1 SSTORE POP PUSH2 0x6A3 DUP1 PUSH2 0x5B PUSH0 CODECOPY PUSH0 RETURN INVALID PUSH1 0x80 PUSH1 0x40 MSTORE CALLVALUE DUP1 ISZERO PUSH2 0xF JUMPI PUSH0 DUP1 REVERT JUMPDEST POP PUSH1 0x4 CALLDATASIZE LT PUSH2 0x4A JUMPI PUSH0 CALLDATALOAD PUSH1 0xE0 SHR DUP1 PUSH4 0x27E235E3 EQ PUSH2 0x4E JUMPI DUP1 PUSH4 0x30A3C507 EQ PUSH2 0x7E JUMPI DUP1 PUSH4 0x71236B92 EQ PUSH2 0x9A JUMPI DUP1 PUSH4 0x8DA5CB5B EQ PUSH2 0xB6 JUMPI JUMPDEST PUSH0 DUP1 REVERT JUMPDEST PUSH2 0x68 PUSH1 0x4 DUP1 CALLDATASIZE SUB DUP2 ADD SWAP1 PUSH2 0x63 SWAP2 SWAP1 PUSH2 0x3B3 JUMP JUMPDEST PUSH2 0xD4 JUMP JUMPDEST PUSH1 0x40 MLOAD PUSH2 0x75 SWAP2 SWAP1 PUSH2 0x3F6 JUMP JUMPDEST PUSH1 0x40 MLOAD DUP1 SWAP2 SUB SWAP1 RETURN JUMPDEST PUSH2 0x98 PUSH1 0x4 DUP1 CALLDATASIZE SUB DUP2 ADD SWAP1 PUSH2 0x93 SWAP2 SWAP1 PUSH2 0x439 JUMP JUMPDEST PUSH2 0xE9 JUMP JUMPDEST STOP JUMPDEST PUSH2 0xB4 PUSH1 0x4 DUP1 CALLDATASIZE SUB DUP2 ADD SWAP1 PUSH2 0xAF SWAP2 SWAP1 PUSH2 0x439 JUMP JUMPDEST PUSH2 0x24E JUMP JUMPDEST STOP JUMPDEST PUSH2 0xBE PUSH2 0x332 JUMP JUMPDEST PUSH1 0x40 MLOAD PUSH2 0xCB SWAP2 SWAP1 PUSH2 0x486 JUMP JUMPDEST PUSH1 0x40 MLOAD DUP1 SWAP2 SUB SWAP1 RETURN JUMPDEST PUSH1 0x1 PUSH1 0x20 MSTORE DUP1 PUSH0 MSTORE PUSH1 0x40 PUSH0 KECCAK256 PUSH0 SWAP2 POP SWAP1 POP SLOAD DUP2 JUMP JUMPDEST PUSH1 0x1 PUSH0 CALLER PUSH20 0xFFFFFFFFFFFFFFFFFFFFFFFFFFFFFFFFFFFFFFFF AND PUSH20 0xFFFFFFFFFFFFFFFFFFFFFFFFFFFFFFFFFFFFFFFF AND DUP2 MSTORE PUSH1 0x20 ADD SWAP1 DUP2 MSTORE PUSH1 0x20 ADD PUSH0 KECCAK256 SLOAD DUP2 GT ISZERO PUSH2 0x169 JUMPI PUSH1 0x40 MLOAD PUSH32 0x8C379A000000000000000000000000000000000000000000000000000000000 DUP2 MSTORE PUSH1 0x4 ADD PUSH2 0x160 SWAP1 PUSH2 0x4F9 JUMP JUMPDEST PUSH1 0x40 MLOAD DUP1 SWAP2 SUB SWAP1 REVERT JUMPDEST DUP1 PUSH1 0x1 PUSH0 CALLER PUSH20 0xFFFFFFFFFFFFFFFFFFFFFFFFFFFFFFFFFFFFFFFF AND PUSH20 0xFFFFFFFFFFFFFFFFFFFFFFFFFFFFFFFFFFFFFFFF AND DUP2 MSTORE PUSH1 0x20 ADD SWAP1 DUP2 MSTORE PUSH1 0x20 ADD PUSH0 KECCAK256 PUSH0 DUP3 DUP3 SLOAD PUSH2 0x1B5 SWAP2 SWAP1 PUSH2 0x544 JUMP JUMPDEST SWAP3 POP POP DUP2 SWAP1 SSTORE POP DUP1 PUSH1 0x1 PUSH0 DUP5 PUSH20 0xFFFFFFFFFFFFFFFFFFFFFFFFFFFFFFFFFFFFFFFF AND PUSH20 0xFFFFFFFFFFFFFFFFFFFFFFFFFFFFFFFFFFFFFFFF AND DUP2 MSTORE PUSH1 0x20 ADD SWAP1 DUP2 MSTORE PUSH1 0x20 ADD PUSH0 KECCAK256 PUSH0 DUP3 DUP3 SLOAD PUSH2 0x208 SWAP2 SWAP1 PUSH2 0x577 JUMP JUMPDEST SWAP3 POP POP DUP2 SWAP1 SSTORE POP PUSH32 0xD262824AFDB34F47ADEC0D11D444478D210933CBC39A64C42BDA1C7DB2462F9D CALLER DUP4 DUP4 PUSH1 0x40 MLOAD PUSH2 0x242 SWAP4 SWAP3 SWAP2 SWAP1 PUSH2 0x5AA JUMP JUMPDEST PUSH1 0x40 MLOAD DUP1 SWAP2 SUB SWAP1 LOG1 POP POP JUMP JUMPDEST PUSH0 DUP1 SLOAD SWAP1 PUSH2 0x100 EXP SWAP1 DIV PUSH20 0xFFFFFFFFFFFFFFFFFFFFFFFFFFFFFFFFFFFFFFFF AND PUSH20 0xFFFFFFFFFFFFFFFFFFFFFFFFFFFFFFFFFFFFFFFF AND CALLER PUSH20 0xFFFFFFFFFFFFFFFFFFFFFFFFFFFFFFFFFFFFFFFF AND EQ PUSH2 0x2DB JUMPI PUSH1 0x40 MLOAD PUSH32 0x8C379A000000000000000000000000000000000000000000000000000000000 DUP2 MSTORE PUSH1 0x4 ADD PUSH2 0x2D2 SWAP1 PUSH2 0x64F JUMP JUMPDEST PUSH1 0x40 MLOAD DUP1 SWAP2 SUB SWAP1 REVERT JUMPDEST DUP1 PUSH1 0x1 PUSH0 DUP5 PUSH20 0xFFFFFFFFFFFFFFFFFFFFFFFFFFFFFFFFFFFFFFFF AND PUSH20 0xFFFFFFFFFFFFFFFFFFFFFFFFFFFFFFFFFFFFFFFF AND DUP2 MSTORE PUSH1 0x20 ADD SWAP1 DUP2 MSTORE PUSH1 0x20 ADD PUSH0 KECCAK256 PUSH0 DUP3 DUP3 SLOAD PUSH2 0x327 SWAP2 SWAP1 PUSH2 0x577 JUMP JUMPDEST SWAP3 POP POP DUP2 SWAP1 SSTORE POP POP POP JUMP JUMPDEST PUSH0 DUP1 SLOAD SWAP1 PUSH2 0x100 EXP SWAP1 DIV PUSH20 0xFFFFFFFFFFFFFFFFFFFFFFFFFFFFFFFFFFFFFFFF AND DUP2 JUMP JUMPDEST PUSH0 DUP1 REVERT JUMPDEST PUSH0 PUSH20 0xFFFFFFFFFFFFFFFFFFFFFFFFFFFFFFFFFFFFFFFF DUP3 AND SWAP1 POP SWAP2 SWAP1 POP JUMP JUMPDEST PUSH0 PUSH2 0x382 DUP3 PUSH2 0x359 JUMP JUMPDEST SWAP1 POP SWAP2 SWAP1 POP JUMP JUMPDEST PUSH2 0x392 DUP2 PUSH2 0x378 JUMP JUMPDEST DUP2 EQ PUSH2 0x39C JUMPI PUSH0 DUP1 REVERT JUMPDEST POP JUMP JUMPDEST PUSH0 DUP2 CALLDATALOAD SWAP1 POP PUSH2 0x3AD DUP2 PUSH2 0x389 JUMP JUMPDEST SWAP3 SWAP2 POP POP JUMP JUMPDEST PUSH0 PUSH1 0x20 DUP3 DUP5 SUB SLT ISZERO PUSH2 0x3C8 JUMPI PUSH2 0x3C7 PUSH2 0x355 JUMP JUMPDEST JUMPDEST PUSH0 PUSH2 0x3D5 DUP5 DUP3 DUP6 ADD PUSH2 0x39F JUMP JUMPDEST SWAP2 POP POP SWAP3 SWAP2 POP POP JUMP JUMPDEST PUSH0 DUP2 SWAP1 POP SWAP2 SWAP1 POP JUMP JUMPDEST PUSH2 0x3F0 DUP2 PUSH2 0x3DE JUMP JUMPDEST DUP3 MSTORE POP POP JUMP JUMPDEST PUSH0 PUSH1 0x20 DUP3 ADD SWAP1 POP PUSH2 0x409 PUSH0 DUP4 ADD DUP5 PUSH2 0x3E7 JUMP JUMPDEST SWAP3 SWAP2 POP POP JUMP JUMPDEST PUSH2 0x418 DUP2 PUSH2 0x3DE JUMP JUMPDEST DUP2 EQ PUSH2 0x422 JUMPI PUSH0 DUP1 REVERT JUMPDEST POP JUMP JUMPDEST PUSH0 DUP2 CALLDATALOAD SWAP1 POP PUSH2 0x433 DUP2 PUSH2 0x40F JUMP JUMPDEST SWAP3 SWAP2 POP POP JUMP JUMPDEST PUSH0 DUP1 PUSH1 0x40 DUP4 DUP6 SUB SLT ISZERO PUSH2 0x44F JUMPI PUSH2 0x44E PUSH2 0x355 JUMP JUMPDEST JUMPDEST PUSH0 PUSH2 0x45C DUP6 DUP3 DUP7 ADD PUSH2 0x39F JUMP JUMPDEST SWAP3 POP POP PUSH1 0x20 PUSH2 0x46D DUP6 DUP3 DUP7 ADD PUSH2 0x425 JUMP JUMPDEST SWAP2 POP POP SWAP3 POP SWAP3 SWAP1 POP JUMP JUMPDEST PUSH2 0x480 DUP2 PUSH2 0x378 JUMP JUMPDEST DUP3 MSTORE POP POP JUMP JUMPDEST PUSH0 PUSH1 0x20 DUP3 ADD SWAP1 POP PUSH2 0x499 PUSH0 DUP4 ADD DUP5 PUSH2 0x477 JUMP JUMPDEST SWAP3 SWAP2 POP POP JUMP JUMPDEST PUSH0 DUP3 DUP3 MSTORE PUSH1 0x20 DUP3 ADD SWAP1 POP SWAP3 SWAP2 POP POP JUMP JUMPDEST PUSH32 0x4163636F756E742062616C616E636520697320696E73756666696369656E7400 PUSH0 DUP3 ADD MSTORE POP JUMP JUMPDEST PUSH0 PUSH2 0x4E3 PUSH1 0x1F DUP4 PUSH2 0x49F JUMP JUMPDEST SWAP2 POP PUSH2 0x4EE DUP3 PUSH2 0x4AF JUMP JUMPDEST PUSH1 0x20 DUP3 ADD SWAP1 POP SWAP2 SWAP1 POP JUMP JUMPDEST PUSH0 PUSH1 0x20 DUP3 ADD SWAP1 POP DUP2 DUP2 SUB PUSH0 DUP4 ADD MSTORE PUSH2 0x510 DUP2 PUSH2 0x4D7 JUMP JUMPDEST SWAP1 POP SWAP2 SWAP1 POP JUMP JUMPDEST PUSH32 0x4E487B7100000000000000000000000000000000000000000000000000000000 PUSH0 MSTORE PUSH1 0x11 PUSH1 0x4 MSTORE PUSH1 0x24 PUSH0 REVERT JUMPDEST PUSH0 PUSH2 0x54E DUP3 PUSH2 0x3DE JUMP JUMPDEST SWAP2 POP PUSH2 0x559 DUP4 PUSH2 0x3DE JUMP JUMPDEST SWAP3 POP DUP3 DUP3 SUB SWAP1 POP DUP2 DUP2 GT ISZERO PUSH2 0x571 JUMPI PUSH2 0x570 PUSH2 0x517 JUMP JUMPDEST JUMPDEST SWAP3 SWAP2 POP POP JUMP JUMPDEST PUSH0 PUSH2 0x581 DUP3 PUSH2 0x3DE JUMP JUMPDEST SWAP2 POP PUSH2 0x58C DUP4 PUSH2 0x3DE JUMP JUMPDEST SWAP3 POP DUP3 DUP3 ADD SWAP1 POP DUP1 DUP3 GT ISZERO PUSH2 0x5A4 JUMPI PUSH2 0x5A3 PUSH2 0x517 JUMP JUMPDEST JUMPDEST SWAP3 SWAP2 POP POP JUMP JUMPDEST PUSH0 PUSH1 0x60 DUP3 ADD SWAP1 POP PUSH2 0x5BD PUSH0 DUP4 ADD DUP7 PUSH2 0x477 JUMP JUMPDEST PUSH2 0x5CA PUSH1 0x20 DUP4 ADD DUP6 PUSH2 0x477 JUMP JUMPDEST PUSH2 0x5D7 PUSH1 0x40 DUP4 ADD DUP5 PUSH2 0x3E7 JUMP JUMPDEST SWAP5 SWAP4 POP POP POP POP JUMP JUMPDEST PUSH32 0x4F6E6C7920746865206F776E65722063616E2061636365737320746869732066 PUSH0 DUP3 ADD MSTORE PUSH32 0x756E6374696F6E00000000000000000000000000000000000000000000000000 PUSH1 0x20 DUP3 ADD MSTORE POP JUMP JUMPDEST PUSH0 PUSH2 0x639 PUSH1 0x27 DUP4 PUSH2 0x49F JUMP JUMPDEST SWAP2 POP PUSH2 0x644 DUP3 PUSH2 0x5DF JUMP JUMPDEST PUSH1 0x40 DUP3 ADD SWAP1 POP SWAP2 SWAP1 POP JUMP JUMPDEST PUSH0 PUSH1 0x20 DUP3 ADD SWAP1 POP DUP2 DUP2 SUB PUSH0 DUP4 ADD MSTORE PUSH2 0x666 DUP2 PUSH2 0x62D JUMP JUMPDEST SWAP1 POP SWAP2 SWAP1 POP JUMP INVALID LOG2 PUSH5 0x6970667358 0x22 SLT KECCAK256 OR MCOPY DUP4 0xA8 BASEFEE 0x26 PUSH17 0x5BA3FE76E0D057428DBD9E712BDC754C6C LOG4 PUSH10 0x49DACF41006664736F6C PUSH4 0x43000819 STOP CALLER "
				},
				"gasEstimates": {
					"creation": {
						"codeDepositCost": "339800",
						"executionCost": "24643",
						"totalCost": "364443"
					},
					"external": {
						"Owner(address,uint256)": "infinite",
						"Send(address,uint256)": "infinite",
						"balances(address)": "2780",
						"owner()": "2549"
					}
				},
				"methodIdentifiers": {
					"Owner(address,uint256)": "71236b92",
					"Send(address,uint256)": "30a3c507",
					"balances(address)": "27e235e3",
					"owner()": "8da5cb5b"
				}
			},
			"storageLayout": {
				"storage": [
					{
						"astId": 3,
						"contract": "contracts/Token_fayzi.sol:Token_Fayzi",
						"label": "owner",
						"offset": 0,
						"slot": "0",
						"type": "t_address"
					},
					{
						"astId": 7,
						"contract": "contracts/Token_fayzi.sol:Token_Fayzi",
						"label": "balances",
						"offset": 0,
						"slot": "1",
						"type": "t_mapping(t_address,t_uint256)"
					}
				],
				"types": {
					"t_address": {
						"encoding": "inplace",
						"label": "address",
						"numberOfBytes": "20"
					},
					"t_mapping(t_address,t_uint256)": {
						"encoding": "mapping",
						"key": "t_address",
						"label": "mapping(address => uint256)",
						"numberOfBytes": "32",
						"value": "t_uint256"
					},
					"t_uint256": {
						"encoding": "inplace",
						"label": "uint256",
						"numberOfBytes": "32"
					}
				}
			},
			"userdoc": {
				"kind": "user",
				"methods": {},
				"version": 1
			}
		}
	}
}